:060000000A128A11122809
:10000800FE00030EF0000408F1000A08F200831253
:1000180003137F08F3000A128A1154280A128A115E
:100028007028831603138801043083120313920087
:100038004C30970063308316031392003C308312D0
:10004800031395008B170B17831603138C140130B9
:1000580085000130831603178800013083120313CB
:100068009F00831603139F013928831203139F14DB
:100078003D289F18402841283D2842281E08F400A2
:100088007408F6008230F500DD30F400F40B4A28DD
:10009800F50B4A284F28392839280A128A111228BC
:1000A8008C1C572858286428831603138C1C5D2839
:1000B8005E28642876088312031395008C10642840
:1000C80073088312FF0072088A0071088400700E9A
:1000D8008300FE0E7E0E0900F601F70183010A1265
:0400E8008A1115283C
:00000001FF
