:060000000A128A11122809
:10000800FE00030EF0000408F1000A08F200831253
:1000180003137F08F3000A128A1115280A128A119D
:1000280076288B1C1828192830280B1E1C281D28F8
:1000380030288B1083160313011F232824282A280D
:100048000113FF308312031388003028011783122D
:1000580003138801302830280B1C332834285628ED
:100068008B1D372838285628061E3B283C283E2852
:1000780008163F280812861E422843284528881655
:1000880046288812061F49284A284C2808174D2850
:100098000813861F50285128532888175428881376
:1000A8000B1056287308FF0072088A007108840034
:1000B800700E8300FE0E7E0E0900FF3083160313B8
:1000C80086008316031788018901831603138801A4
:1000D80098308B00F03096009501722872280A1229
:0C00E8008A11122883010A128A11612873
:00000001FF
